{
  "_format": "hh-sol-artifact-1",
  "contractName": "TrustFund",
  "sourceName": "contracts/TrustFund.sol",
  "abi": [
    {
      "inputs": [
        {
          "internalType": "string[]",
          "name": "titles",
          "type": "string[]"
        },
        {
          "internalType": "uint256[]",
          "name": "amounts",
          "type": "uint256[]"
        }
      ],
      "name": "createProject",
      "outputs": [],
      "stateMutability": "nonpayable",
      "type": "function"
    },
    {
      "inputs": [
        {
          "internalType": "uint256",
          "name": "projectId",
          "type": "uint256"
        }
      ],
      "name": "fundProject",
      "outputs": [],
      "stateMutability": "payable",
      "type": "function"
    },
    {
      "inputs": [],
      "name": "nextProjectId",
      "outputs": [
        {
          "internalType": "uint256",
          "name": "",
          "type": "uint256"
        }
      ],
      "stateMutability": "view",
      "type": "function"
    },
    {
      "inputs": [
        {
          "internalType": "uint256",
          "name": "",
          "type": "uint256"
        }
      ],
      "name": "projects",
      "outputs": [
        {
          "internalType": "address",
          "name": "owner",
          "type": "address"
        },
        {
          "internalType": "uint256",
          "name": "totalFunding",
          "type": "uint256"
        },
        {
          "internalType": "uint256",
          "name": "milestoneCount",
          "type": "uint256"
        },
        {
          "internalType": "bool",
          "name": "exists",
          "type": "bool"
        }
      ],
      "stateMutability": "view",
      "type": "function"
    },
    {
      "inputs": [
        {
          "internalType": "uint256",
          "name": "projectId",
          "type": "uint256"
        },
        {
          "internalType": "uint256",
          "name": "milestoneId",
          "type": "uint256"
        }
      ],
      "name": "releaseMilestone",
      "outputs": [],
      "stateMutability": "nonpayable",
      "type": "function"
    },
    {
      "inputs": [
        {
          "internalType": "uint256",
          "name": "projectId",
          "type": "uint256"
        },
        {
          "internalType": "uint256",
          "name": "milestoneId",
          "type": "uint256"
        }
      ],
      "name": "requestMilestone",
      "outputs": [],
      "stateMutability": "nonpayable",
      "type": "function"
    },
    {
      "inputs": [
        {
          "internalType": "uint256",
          "name": "projectId",
          "type": "uint256"
        },
        {
          "internalType": "uint256",
          "name": "milestoneId",
          "type": "uint256"
        },
        {
          "internalType": "bool",
          "name": "approve",
          "type": "bool"
        }
      ],
      "name": "voteMilestone",
      "outputs": [],
      "stateMutability": "nonpayable",
      "type": "function"
    }
  ],
  "bytecode": "0x6080604052348015600f57600080fd5b506116d68061001f6000396000f3fe6080604052600436106100705760003560e01c806385312b4a1161004e57806385312b4a146100fa578063918cb24114610123578063dbaf09101461014c578063e935b7b11461017557610070565b8063107046bd14610075578063376d7674146100b55780636c563abe146100de575b600080fd5b34801561008157600080fd5b5061009c60048036038101906100979190610a4e565b6101a0565b6040516100ac9493929190610ae6565b60405180910390f35b3480156100c157600080fd5b506100dc60048036038101906100d79190610b2b565b6101fd565b005b6100f860048036038101906100f39190610a4e565b610310565b005b34801561010657600080fd5b50610121600480360381019061011c9190610e5a565b610431565b005b34801561012f57600080fd5b5061014a60048036038101906101459190610efe565b610617565b005b34801561015857600080fd5b50610173600480360381019061016e9190610b2b565b61082c565b005b34801561018157600080fd5b5061018a6109fe565b6040516101979190610f51565b60405180910390f35b60006020528060005260406000206000915090508060000160009054906101000a900473ffffffffffffffffffffffffffffffffffffffff16908060010154908060020154908060050160009054906101000a900460ff16905084565b600080600084815260200190815260200160002090508060000160009054906101000a900473ffffffffffffffffffffffffffffffffffffffff1673ffffffffffffffffffffffffffffffffffffffff163373ffffffffffffffffffffffffffffffffffffffff16146102a5576040517f08c379a000000000000000000000000000000000000000000000000000000000815260040161029c90610fc9565b60405180910390fd5b80600301600083815260200190815260200160002060020160009054906101000a900460ff161561030b576040517f08c379a000000000000000000000000000000000000000000000000000000000815260040161030290611035565b60405180910390fd5b505050565b600080600083815260200190815260200160002090508060050160009054906101000a900460ff16610377576040517f08c379a000000000000000000000000000000000000000000000000000000000815260040161036e906110a1565b60405180910390fd5b600034116103ba576040517f08c379a00000000000000000000000000000000000000000000000000000000081526004016103b19061110d565b60405180910390fd5b348160040160003373ffffffffffffffffffffffffffffffffffffffff1673ffffffffffffffffffffffffffffffffffffffff168152602001908152602001600020600082825461040b919061115c565b9250508190555034816001016000828254610426919061115c565b925050819055505050565b8051825114610475576040517f08c379a000000000000000000000000000000000000000000000000000000000815260040161046c906111dc565b60405180910390fd5b600080600060015481526020019081526020016000209050338160000160006101000a81548173ffffffffffffffffffffffffffffffffffffffff021916908373ffffffffffffffffffffffffffffffffffffffff16021790555060018160050160006101000a81548160ff02191690831515021790555060005b83518110156105f95783818151811061050c5761050b6111fc565b5b602002602001015182600301600083815260200190815260200160002060000190816105389190611442565b5082818151811061054c5761054b6111fc565b5b602002602001015182600301600083815260200190815260200160002060010181905550600082600301600083815260200190815260200160002060020160006101000a81548160ff021916908315150217905550600082600301600083815260200190815260200160002060020160016101000a81548160ff0219169083151502179055508160020160008154809291906105e790611514565b919050555080806001019150506104f0565b506001600081548092919061060d90611514565b9190505550505050565b6000806000858152602001908152602001600020905060008160040160003373ffffffffffffffffffffffffffffffffffffffff1673ffffffffffffffffffffffffffffffffffffffff16815260200190815260200160002054116106b1576040517f08c379a00000000000000000000000000000000000000000000000000000000081526004016106a8906115a8565b60405180910390fd5b600081600301600085815260200190815260200160002090508060050160003373ffffffffffffffffffffffffffffffffffffffff1673ffffffffffffffffffffffffffffffffffffffff16815260200190815260200160002060009054906101000a900460ff1615610759576040517f08c379a000000000000000000000000000000000000000000000000000000000815260040161075090611614565b60405180910390fd5b60018160050160003373ffffffffffffffffffffffffffffffffffffffff1673ffffffffffffffffffffffffffffffffffffffff16815260200190815260200160002060006101000a81548160ff02191690831515021790555082156107da5760018160030160008282546107ce919061115c565b925050819055506107f7565b60018160040160008282546107ef919061115c565b925050819055505b8060040154816003015411156108255760018160020160016101000a81548160ff0219169083151502179055505b5050505050565b600080600084815260200190815260200160002090508060000160009054906101000a900473ffffffffffffffffffffffffffffffffffffffff1673ffffffffffffffffffffffffffffffffffffffff163373ffffffffffffffffffffffffffffffffffffffff16146108d4576040517f08c379a00000000000000000000000000000000000000000000000000000000081526004016108cb90610fc9565b60405180910390fd5b600081600301600084815260200190815260200160002090508060020160019054906101000a900460ff1661093e576040517f08c379a000000000000000000000000000000000000000000000000000000000815260040161093590611680565b60405180910390fd5b8060020160009054906101000a900460ff1615610990576040517f08c379a000000000000000000000000000000000000000000000000000000000815260040161098790611035565b60405180910390fd5b60018160020160006101000a81548160ff0219169083151502179055503373ffffffffffffffffffffffffffffffffffffffff166108fc82600101549081150290604051600060405180830381858888f193505050501580156109f7573d6000803e3d6000fd5b5050505050565b60015481565b6000604051905090565b600080fd5b600080fd5b6000819050919050565b610a2b81610a18565b8114610a3657600080fd5b50565b600081359050610a4881610a22565b92915050565b600060208284031215610a6457610a63610a0e565b5b6000610a7284828501610a39565b91505092915050565b600073ffffffffffffffffffffffffffffffffffffffff82169050919050565b6000610aa682610a7b565b9050919050565b610ab681610a9b565b82525050565b610ac581610a18565b82525050565b60008115159050919050565b610ae081610acb565b82525050565b6000608082019050610afb6000830187610aad565b610b086020830186610abc565b610b156040830185610abc565b610b226060830184610ad7565b95945050505050565b60008060408385031215610b4257610b41610a0e565b5b6000610b5085828601610a39565b9250506020610b6185828601610a39565b9150509250929050565b600080fd5b6000601f19601f8301169050919050565b7f4e487b7100000000000000000000000000000000000000000000000000000000600052604160045260246000fd5b610bb982610b70565b810181811067ffffffffffffffff82111715610bd857610bd7610b81565b5b80604052505050565b6000610beb610a04565b9050610bf78282610bb0565b919050565b600067ffffffffffffffff821115610c1757610c16610b81565b5b602082029050602081019050919050565b600080fd5b600080fd5b600067ffffffffffffffff821115610c4d57610c4c610b81565b5b610c5682610b70565b9050602081019050919050565b82818337600083830152505050565b6000610c85610c8084610c32565b610be1565b905082815260208101848484011115610ca157610ca0610c2d565b5b610cac848285610c63565b509392505050565b600082601f830112610cc957610cc8610b6b565b5b8135610cd9848260208601610c72565b91505092915050565b6000610cf5610cf084610bfc565b610be1565b90508083825260208201905060208402830185811115610d1857610d17610c28565b5b835b81811015610d5f57803567ffffffffffffffff811115610d3d57610d3c610b6b565b5b808601610d4a8982610cb4565b85526020850194505050602081019050610d1a565b5050509392505050565b600082601f830112610d7e57610d7d610b6b565b5b8135610d8e848260208601610ce2565b91505092915050565b600067ffffffffffffffff821115610db257610db1610b81565b5b602082029050602081019050919050565b6000610dd6610dd184610d97565b610be1565b90508083825260208201905060208402830185811115610df957610df8610c28565b5b835b81811015610e225780610e0e8882610a39565b845260208401935050602081019050610dfb565b5050509392505050565b600082601f830112610e4157610e40610b6b565b5b8135610e51848260208601610dc3565b91505092915050565b60008060408385031215610e7157610e70610a0e565b5b600083013567ffffffffffffffff811115610e8f57610e8e610a13565b5b610e9b85828601610d69565b925050602083013567ffffffffffffffff811115610ebc57610ebb610a13565b5b610ec885828601610e2c565b9150509250929050565b610edb81610acb565b8114610ee657600080fd5b50565b600081359050610ef881610ed2565b92915050565b600080600060608486031215610f1757610f16610a0e565b5b6000610f2586828701610a39565b9350506020610f3686828701610a39565b9250506040610f4786828701610ee9565b9150509250925092565b6000602082019050610f666000830184610abc565b92915050565b600082825260208201905092915050565b7f4e6f74206f776e65720000000000000000000000000000000000000000000000600082015250565b6000610fb3600983610f6c565b9150610fbe82610f7d565b602082019050919050565b60006020820190508181036000830152610fe281610fa6565b9050919050565b7f416c726561647920636f6d706c65746564000000000000000000000000000000600082015250565b600061101f601183610f6c565b915061102a82610fe9565b602082019050919050565b6000602082019050818103600083015261104e81611012565b9050919050565b7f50726f6a656374206e6f7420666f756e64000000000000000000000000000000600082015250565b600061108b601183610f6c565b915061109682611055565b602082019050919050565b600060208201905081810360008301526110ba8161107e565b9050919050565b7f4e65656420455448000000000000000000000000000000000000000000000000600082015250565b60006110f7600883610f6c565b9150611102826110c1565b602082019050919050565b60006020820190508181036000830152611126816110ea565b9050919050565b7f4e487b7100000000000000000000000000000000000000000000000000000000600052601160045260246000fd5b600061116782610a18565b915061117283610a18565b925082820190508082111561118a5761118961112d565b5b92915050565b7f4c656e677468206d69736d617463680000000000000000000000000000000000600082015250565b60006111c6600f83610f6c565b91506111d182611190565b602082019050919050565b600060208201905081810360008301526111f5816111b9565b9050919050565b7f4e487b7100000000000000000000000000000000000000000000000000000000600052603260045260246000fd5b600081519050919050565b7f4e487b7100000000000000000000000000000000000000000000000000000000600052602260045260246000fd5b6000600282049050600182168061127d57607f821691505b6020821081036112905761128f611236565b5b50919050565b60008190508160005260206000209050919050565b60006020601f8301049050919050565b600082821b905092915050565b6000600883026112f87fffffffffffffffffffffffffffffffffffffffffffffffffffffffffffffffff826112bb565b61130286836112bb565b95508019841693508086168417925050509392505050565b6000819050919050565b600061133f61133a61133584610a18565b61131a565b610a18565b9050919050565b6000819050919050565b61135983611324565b61136d61136582611346565b8484546112c8565b825550505050565b600090565b611382611375565b61138d818484611350565b505050565b5b818110156113b1576113a660008261137a565b600181019050611393565b5050565b601f8211156113f6576113c781611296565b6113d0846112ab565b810160208510156113df578190505b6113f36113eb856112ab565b830182611392565b50505b505050565b600082821c905092915050565b6000611419600019846008026113fb565b1980831691505092915050565b60006114328383611408565b9150826002028217905092915050565b61144b8261122b565b67ffffffffffffffff81111561146457611463610b81565b5b61146e8254611265565b6114798282856113b5565b600060209050601f8311600181146114ac576000841561149a578287015190505b6114a48582611426565b86555061150c565b601f1984166114ba86611296565b60005b828110156114e2578489015182556001820191506020850194506020810190506114bd565b868310156114ff57848901516114fb601f891682611408565b8355505b6001600288020188555050505b505050505050565b600061151f82610a18565b91507fffffffffffffffffffffffffffffffffffffffffffffffffffffffffffffffff82036115515761155061112d565b5b600182019050919050565b7f4e6f742066756e64657200000000000000000000000000000000000000000000600082015250565b6000611592600a83610f6c565b915061159d8261155c565b602082019050919050565b600060208201905081810360008301526115c181611585565b9050919050565b7f416c726561647920766f74656400000000000000000000000000000000000000600082015250565b60006115fe600d83610f6c565b9150611609826115c8565b602082019050919050565b6000602082019050818103600083015261162d816115f1565b9050919050565b7f4e6f7420617070726f7665640000000000000000000000000000000000000000600082015250565b600061166a600c83610f6c565b915061167582611634565b602082019050919050565b600060208201905081810360008301526116998161165d565b905091905056fea26469706673582212201bb9084a115dc20823cc224352aa70a5777325b492f4190a796dcf65f8f056ea64736f6c634300081c0033",
  "linkReferences": {},
  "deployedLinkReferences": {}
}